{
  "_format": "hh-sol-artifact-1",
  "contractName": "AaveManager",
  "sourceName": "contracts/AaveManager.sol",
  "abi": [
    {
      "inputs": [],
      "stateMutability": "nonpayable",
      "type": "constructor"
    },
    {
      "anonymous": false,
      "inputs": [
        {
          "indexed": false,
          "internalType": "uint256",
          "name": "_myCollateralBalance",
          "type": "uint256"
        },
        {
          "indexed": false,
          "internalType": "uint256",
          "name": "_myBorrowedBalanceInBase",
          "type": "uint256"
        },
        {
          "indexed": false,
          "internalType": "uint256",
          "name": "_myHealthRatio",
          "type": "uint256"
        }
      ],
      "name": "TellUserData",
      "type": "event"
    },
    {
      "inputs": [],
      "name": "YTestToken",
      "outputs": [
        {
          "internalType": "contract IERC20",
          "name": "",
          "type": "address"
        }
      ],
      "stateMutability": "view",
      "type": "function"
    },
    {
      "inputs": [],
      "name": "aPool",
      "outputs": [
        {
          "internalType": "contract IPool",
          "name": "",
          "type": "address"
        }
      ],
      "stateMutability": "view",
      "type": "function"
    },
    {
      "inputs": [],
      "name": "aaveOracle",
      "outputs": [
        {
          "internalType": "contract IAaveOracle",
          "name": "",
          "type": "address"
        }
      ],
      "stateMutability": "view",
      "type": "function"
    },
    {
      "inputs": [
        {
          "internalType": "uint256",
          "name": "",
          "type": "uint256"
        }
      ],
      "name": "borrowableAssets",
      "outputs": [
        {
          "internalType": "address",
          "name": "",
          "type": "address"
        }
      ],
      "stateMutability": "view",
      "type": "function"
    },
    {
      "inputs": [
        {
          "internalType": "address",
          "name": "",
          "type": "address"
        }
      ],
      "name": "borrowedAssetsMapping",
      "outputs": [
        {
          "internalType": "uint256",
          "name": "totalCollateral",
          "type": "uint256"
        },
        {
          "internalType": "uint256",
          "name": "totalBorrowed",
          "type": "uint256"
        },
        {
          "internalType": "uint256",
          "name": "pairHealthRatio",
          "type": "uint256"
        }
      ],
      "stateMutability": "view",
      "type": "function"
    },
    {
      "inputs": [],
      "name": "collateralToken",
      "outputs": [
        {
          "internalType": "address",
          "name": "",
          "type": "address"
        }
      ],
      "stateMutability": "view",
      "type": "function"
    },
    {
      "inputs": [
        {
          "internalType": "uint256",
          "name": "_totalDeposit",
          "type": "uint256"
        },
        {
          "internalType": "uint256",
          "name": "_collateral",
          "type": "uint256"
        },
        {
          "internalType": "address",
          "name": "_borrowToken",
          "type": "address"
        },
        {
          "internalType": "uint256",
          "name": "_loanValueInBorrowedToken",
          "type": "uint256"
        }
      ],
      "name": "deposit",
      "outputs": [],
      "stateMutability": "payable",
      "type": "function"
    },
    {
      "inputs": [
        {
          "internalType": "address",
          "name": "_token",
          "type": "address"
        }
      ],
      "name": "getAssetPrice",
      "outputs": [
        {
          "internalType": "uint256",
          "name": "",
          "type": "uint256"
        }
      ],
      "stateMutability": "view",
      "type": "function"
    },
    {
      "inputs": [
        {
          "internalType": "address",
          "name": "_borrowToken",
          "type": "address"
        }
      ],
      "name": "getDebtInBorrowedToken",
      "outputs": [
        {
          "internalType": "uint256",
          "name": "",
          "type": "uint256"
        }
      ],
      "stateMutability": "view",
      "type": "function"
    },
    {
      "inputs": [
        {
          "internalType": "address",
          "name": "user",
          "type": "address"
        }
      ],
      "name": "getTotalBorrowedAmountInBase",
      "outputs": [
        {
          "internalType": "uint256",
          "name": "",
          "type": "uint256"
        }
      ],
      "stateMutability": "view",
      "type": "function"
    },
    {
      "inputs": [],
      "name": "poolAddress",
      "outputs": [
        {
          "internalType": "address",
          "name": "",
          "type": "address"
        }
      ],
      "stateMutability": "view",
      "type": "function"
    },
    {
      "inputs": [
        {
          "internalType": "uint256",
          "name": "_newHealthRatio",
          "type": "uint256"
        }
      ],
      "name": "setNewHealthRatio",
      "outputs": [],
      "stateMutability": "nonpayable",
      "type": "function"
    },
    {
      "inputs": [
        {
          "internalType": "address",
          "name": "",
          "type": "address"
        }
      ],
      "name": "usersDataObject",
      "outputs": [
        {
          "internalType": "uint256",
          "name": "myTotalDeposit",
          "type": "uint256"
        },
        {
          "internalType": "uint256",
          "name": "myHealthRatio",
          "type": "uint256"
        }
      ],
      "stateMutability": "view",
      "type": "function"
    },
    {
      "inputs": [
        {
          "internalType": "uint256",
          "name": "_amountToRepayInBorrowed",
          "type": "uint256"
        },
        {
          "internalType": "uint256",
          "name": "_amountToWithdrawInBase",
          "type": "uint256"
        },
        {
          "internalType": "uint256",
          "name": "_amountToUnstake",
          "type": "uint256"
        },
        {
          "internalType": "address",
          "name": "_borrowToken",
          "type": "address"
        }
      ],
      "name": "withdraw",
      "outputs": [],
      "stateMutability": "nonpayable",
      "type": "function"
    },
    {
      "inputs": [],
      "name": "yVault",
      "outputs": [
        {
          "internalType": "contract VaultAPI",
          "name": "",
          "type": "address"
        }
      ],
      "stateMutability": "view",
      "type": "function"
    },
    {
      "inputs": [],
      "name": "yVaultAddress",
      "outputs": [
        {
          "internalType": "address",
          "name": "",
          "type": "address"
        }
      ],
      "stateMutability": "view",
      "type": "function"
    }
  ],
  "bytecode": "0x61016060405234801561001157600080fd5b5073368eedf3f56ad10b9bc57eed4dac65b26bb667f673ffffffffffffffffffffffffffffffffffffffff1660a08173ffffffffffffffffffffffffffffffffffffffff168152505073bbe176d71b032ebb72de7309e8db6320235f7ae973ffffffffffffffffffffffffffffffffffffffff1660c08173ffffffffffffffffffffffffffffffffffffffff168152505073368eedf3f56ad10b9bc57eed4dac65b26bb667f673ffffffffffffffffffffffffffffffffffffffff1660e08173ffffffffffffffffffffffffffffffffffffffff168152505073bbe176d71b032ebb72de7309e8db6320235f7ae973ffffffffffffffffffffffffffffffffffffffff166101008173ffffffffffffffffffffffffffffffffffffffff168152505073f8ebaf73fc7da042494857822976cd8f02263b4973ffffffffffffffffffffffffffffffffffffffff166101208173ffffffffffffffffffffffffffffffffffffffff168152505073a2025b15a1757311bfd68cb14eaefcc237af5b4373ffffffffffffffffffffffffffffffffffffffff1660808173ffffffffffffffffffffffffffffffffffffffff1681525050735bed0810073cc9f0dacf73c648202249e87ef6cb73ffffffffffffffffffffffffffffffffffffffff166101408173ffffffffffffffffffffffffffffffffffffffff168152505060007307c725d58437504ca5f814ae406e70e21c5e8e9e9080600181540180825580915050600190039060005260206000200160009091909190916101000a81548173ffffffffffffffffffffffffffffffffffffffff021916908373ffffffffffffffffffffffffffffffffffffffff16021790555060805160a05160c05160e051610100516101205161014051611dab61032b600039600081816107be0152818161083e0152610acf015260006109fc0152600061077601526000818161056b0152818161063501528181610de801528181610e8c0152611147015260006109d80152600081816107520152610d450152600081816105a70152818161067101528181610aa901528181610ec80152610f4d0152611dab6000f3fe6080604052600436106100f35760003560e01c80639821e5ed1161008a578063d331bef711610059578063d331bef714610357578063e595cbb614610380578063e6240d28146103ab578063e78f0949146103e8576100f3565b80639821e5ed14610273578063b2016bd4146102b0578063b3596f07146102db578063c9e3596a14610318576100f3565b80636372b281116100c65780636372b281146101b5578063844b20a5146101e057806385e61f641461021d578063935393d214610248576100f3565b806315671dca146100f85780631755ff211461012157806333303f8e1461014c57806335c629d714610177575b600080fd5b34801561010457600080fd5b5061011f600480360381019061011a91906112eb565b610404565b005b34801561012d57600080fd5b50610136610750565b6040516101439190611359565b60405180910390f35b34801561015857600080fd5b50610161610774565b60405161016e91906113d3565b60405180910390f35b34801561018357600080fd5b5061019e6004803603810190610199919061141a565b610798565b6040516101ac929190611456565b60405180910390f35b3480156101c157600080fd5b506101ca6107bc565b6040516101d791906114a0565b60405180910390f35b3480156101ec57600080fd5b506102076004803603810190610202919061141a565b6107e0565b60405161021491906114bb565b60405180910390f35b34801561022957600080fd5b506102326109d6565b60405161023f9190611359565b60405180910390f35b34801561025457600080fd5b5061025d6109fa565b60405161026a91906114f7565b60405180910390f35b34801561027f57600080fd5b5061029a6004803603810190610295919061141a565b610a1e565b6040516102a791906114bb565b60405180910390f35b3480156102bc57600080fd5b506102c5610aa7565b6040516102d29190611359565b60405180910390f35b3480156102e757600080fd5b5061030260048036038101906102fd919061141a565b610acb565b60405161030f91906114bb565b60405180910390f35b34801561032457600080fd5b5061033f600480360381019061033a919061141a565b610b6e565b60405161034e93929190611512565b60405180910390f35b34801561036357600080fd5b5061037e60048036038101906103799190611549565b610b98565b005b34801561038c57600080fd5b50610395611145565b6040516103a291906115d1565b60405180910390f35b3480156103b757600080fd5b506103d260048036038101906103cd91906112eb565b611169565b6040516103df9190611359565b60405180910390f35b61040260048036038101906103fd91906115ec565b6111a8565b005b6000600160003373ffffffffffffffffffffffffffffffffffffffff1673ffffffffffffffffffffffffffffffffffffffff1681526020019081526020016000209050600081600101541161048e576040517f08c379a0000000000000000000000000000000000000000000000000000000008152600401610485906116d6565b60405180910390fd5b80600101548214156104d5576040517f08c379a00000000000000000000000000000000000000000000000000000000081526004016104cc90611768565b60405180910390fd5b607d8211610518576040517f08c379a000000000000000000000000000000000000000000000000000000000815260040161050f906117fa565b60405180910390fd5b6000610523336107e0565b9050600060648360010154836105399190611849565b61054391906118d2565b90506000606485846105559190611849565b61055f91906118d2565b90508181111561062b577f000000000000000000000000000000000000000000000000000000000000000073ffffffffffffffffffffffffffffffffffffffff1663617ba0377f000000000000000000000000000000000000000000000000000000000000000084846105d29190611903565b3060006040518563ffffffff1660e01b81526004016105f49493929190611980565b600060405180830381600087803b15801561060e57600080fd5b505af1158015610622573d6000803e3d6000fd5b50505050610701565b81811015610700577f000000000000000000000000000000000000000000000000000000000000000073ffffffffffffffffffffffffffffffffffffffff166369328dec7f0000000000000000000000000000000000000000000000000000000000000000838561069c9190611903565b306040518463ffffffff1660e01b81526004016106bb939291906119c5565b6020604051808303816000875af11580156106da573d6000803e3d6000fd5b505050506040513d601f19601f820116820180604052508101906106fe9190611a11565b505b5b8484600101819055507fb9d9bdd15426bf83063fd933081c74d011b8a304067be7fe9def165e932623a88284866001015460405161074193929190611512565b60405180910390a15050505050565b7f000000000000000000000000000000000000000000000000000000000000000081565b7f000000000000000000000000000000000000000000000000000000000000000081565b60016020528060005260406000206000915090508060000154908060010154905082565b7f000000000000000000000000000000000000000000000000000000000000000081565b600080600160008473ffffffffffffffffffffffffffffffffffffffff1673ffffffffffffffffffffffffffffffffffffffff16815260200190815260200160002090506000805b6000805490508110156109cb5760006305f5e1007f000000000000000000000000000000000000000000000000000000000000000073ffffffffffffffffffffffffffffffffffffffff1663b3596f076000858154811061088c5761088b611a3e565b5b9060005260206000200160009054906101000a900473ffffffffffffffffffffffffffffffffffffffff166040518263ffffffff1660e01b81526004016108d39190611359565b602060405180830381865afa1580156108f0573d6000803e3d6000fd5b505050506040513d601f19601f820116820180604052508101906109149190611a11565b85600201600080868154811061092d5761092c611a3e565b5b9060005260206000200160009054906101000a900473ffffffffffffffffffffffffffffffffffffffff1673ffffffffffffffffffffffffffffffffffffffff1673ffffffffffffffffffffffffffffffffffffffff1681526020019081526020016000205461099d9190611849565b6109a791906118d2565b905080836109b59190611a6d565b92505080806109c390611ac3565b915050610828565b508092505050919050565b7f000000000000000000000000000000000000000000000000000000000000000081565b7f000000000000000000000000000000000000000000000000000000000000000081565b6000600160003373ffffffffffffffffffffffffffffffffffffffff1673ffffffffffffffffffffffffffffffffffffffff16815260200190815260200160002060020160008373ffffffffffffffffffffffffffffffffffffffff1673ffffffffffffffffffffffffffffffffffffffff168152602001908152602001600020549050919050565b7f000000000000000000000000000000000000000000000000000000000000000081565b60007f000000000000000000000000000000000000000000000000000000000000000073ffffffffffffffffffffffffffffffffffffffff1663b3596f07836040518263ffffffff1660e01b8152600401610b269190611359565b602060405180830381865afa158015610b43573d6000803e3d6000fd5b505050506040513d601f19601f82011682018060405250810190610b679190611a11565b9050919050565b60026020528060005260406000206000915090508060000154908060010154908060020154905083565b6000600160003373ffffffffffffffffffffffffffffffffffffffff1673ffffffffffffffffffffffffffffffffffffffff16815260200190815260200160002090508381600001541015610c22576040517f08c379a0000000000000000000000000000000000000000000000000000000008152600401610c1990611b7e565b60405180910390fd5b848160020160008473ffffffffffffffffffffffffffffffffffffffff1673ffffffffffffffffffffffffffffffffffffffff168152602001908152602001600020541015610ca6576040517f08c379a0000000000000000000000000000000000000000000000000000000008152600401610c9d90611c10565b60405180910390fd5b8173ffffffffffffffffffffffffffffffffffffffff166323b872dd3330886040518463ffffffff1660e01b8152600401610ce393929190611c30565b6020604051808303816000875af1158015610d02573d6000803e3d6000fd5b505050506040513d601f19601f82011682018060405250810190610d269190611c9f565b508173ffffffffffffffffffffffffffffffffffffffff1663095ea7b37f00000000000000000000000000000000000000000000000000000000000000007fffffffffffffffffffffffffffffffffffffffffffffffffffffffffffffffff6040518363ffffffff1660e01b8152600401610da2929190611ccc565b6020604051808303816000875af1158015610dc1573d6000803e3d6000fd5b505050506040513d601f19601f82011682018060405250810190610de59190611c9f565b507f000000000000000000000000000000000000000000000000000000000000000073ffffffffffffffffffffffffffffffffffffffff1663573ade8183876002306040518563ffffffff1660e01b8152600401610e469493929190611d30565b6020604051808303816000875af1158015610e65573d6000803e3d6000fd5b505050506040513d601f19601f82011682018060405250810190610e899190611a11565b507f000000000000000000000000000000000000000000000000000000000000000073ffffffffffffffffffffffffffffffffffffffff166369328dec7f000000000000000000000000000000000000000000000000000000000000000086306040518463ffffffff1660e01b8152600401610f07939291906119c5565b6020604051808303816000875af1158015610f26573d6000803e3d6000fd5b505050506040513d601f19601f82011682018060405250810190610f4a9190611a11565b507f000000000000000000000000000000000000000000000000000000000000000073ffffffffffffffffffffffffffffffffffffffff1663a9059cbb338587610f949190611a6d565b6040518363ffffffff1660e01b8152600401610fb1929190611ccc565b6020604051808303816000875af1158015610fd0573d6000803e3d6000fd5b505050506040513d601f19601f82011682018060405250810190610ff49190611c9f565b506000611000336107e0565b9050858260020160008573ffffffffffffffffffffffffffffffffffffffff1673ffffffffffffffffffffffffffffffffffffffff16815260200190815260200160002060008282546110539190611903565b925050819055506000611065336107e0565b9050600086606485600101548561107c9190611849565b61108691906118d2565b6110909190611903565b905060008214806110a15750600081145b156110b557600084600101819055506110d6565b816064826110c39190611849565b6110cd91906118d2565b84600101819055505b85876110e29190611a6d565b8460000160008282546110f59190611903565b925050819055507fb9d9bdd15426bf83063fd933081c74d011b8a304067be7fe9def165e932623a88183866001015460405161113393929190611512565b60405180910390a15050505050505050565b7f000000000000000000000000000000000000000000000000000000000000000081565b6000818154811061117957600080fd5b906000526020600020016000915054906101000a900473ffffffffffffffffffffffffffffffffffffffff1681565b6000600160003373ffffffffffffffffffffffffffffffffffffffff1673ffffffffffffffffffffffffffffffffffffffff1681526020019081526020016000209050818160020160008573ffffffffffffffffffffffffffffffffffffffff1673ffffffffffffffffffffffffffffffffffffffff168152602001908152602001600020600082825461123c9190611a6d565b92505081905550600061124e336107e0565b90506000816064876112609190611849565b61126a91906118d2565b90507fb9d9bdd15426bf83063fd933081c74d011b8a304067be7fe9def165e932623a886838360405161129f93929190611512565b60405180910390a150505050505050565b600080fd5b6000819050919050565b6112c8816112b5565b81146112d357600080fd5b50565b6000813590506112e5816112bf565b92915050565b600060208284031215611301576113006112b0565b5b600061130f848285016112d6565b91505092915050565b600073ffffffffffffffffffffffffffffffffffffffff82169050919050565b600061134382611318565b9050919050565b61135381611338565b82525050565b600060208201905061136e600083018461134a565b92915050565b6000819050919050565b600061139961139461138f84611318565b611374565b611318565b9050919050565b60006113ab8261137e565b9050919050565b60006113bd826113a0565b9050919050565b6113cd816113b2565b82525050565b60006020820190506113e860008301846113c4565b92915050565b6113f781611338565b811461140257600080fd5b50565b600081359050611414816113ee565b92915050565b6000602082840312156114305761142f6112b0565b5b600061143e84828501611405565b91505092915050565b611450816112b5565b82525050565b600060408201905061146b6000830185611447565b6114786020830184611447565b9392505050565b600061148a826113a0565b9050919050565b61149a8161147f565b82525050565b60006020820190506114b56000830184611491565b92915050565b60006020820190506114d06000830184611447565b92915050565b60006114e1826113a0565b9050919050565b6114f1816114d6565b82525050565b600060208201905061150c60008301846114e8565b92915050565b60006060820190506115276000830186611447565b6115346020830185611447565b6115416040830184611447565b949350505050565b60008060008060808587031215611563576115626112b0565b5b6000611571878288016112d6565b9450506020611582878288016112d6565b9350506040611593878288016112d6565b92505060606115a487828801611405565b91505092959194509250565b60006115bb826113a0565b9050919050565b6115cb816115b0565b82525050565b60006020820190506115e660008301846115c2565b92915050565b60008060008060808587031215611606576116056112b0565b5b6000611614878288016112d6565b9450506020611625878288016112d6565b935050604061163687828801611405565b9250506060611647878288016112d6565b91505092959194509250565b600082825260208201905092915050565b7f596f7572206865616c746820726174696f20697320302c20796f752063616e2760008201527f74207365742061206e6577206f6e650000000000000000000000000000000000602082015250565b60006116c0602f83611653565b91506116cb82611664565b604082019050919050565b600060208201905081810360008301526116ef816116b3565b9050919050565b7f43616e27742073657420746f207468652073616d65206578697374696e67206860008201527f65616c746820726174696f000000000000000000000000000000000000000000602082015250565b6000611752602b83611653565b915061175d826116f6565b604082019050919050565b6000602082019050818103600083015261178181611745565b9050919050565b7f4865616c746820726174696f2068617320746f2062652067726561746572207460008201527f68616e2031323525000000000000000000000000000000000000000000000000602082015250565b60006117e4602883611653565b91506117ef82611788565b604082019050919050565b60006020820190508181036000830152611813816117d7565b9050919050565b7f4e487b7100000000000000000000000000000000000000000000000000000000600052601160045260246000fd5b6000611854826112b5565b915061185f836112b5565b9250817fffffffffffffffffffffffffffffffffffffffffffffffffffffffffffffffff04831182151516156118985761189761181a565b5b828202905092915050565b7f4e487b7100000000000000000000000000000000000000000000000000000000600052601260045260246000fd5b60006118dd826112b5565b91506118e8836112b5565b9250826118f8576118f76118a3565b5b828204905092915050565b600061190e826112b5565b9150611919836112b5565b92508282101561192c5761192b61181a565b5b828203905092915050565b6000819050919050565b600061ffff82169050919050565b600061196a61196561196084611937565b611374565b611941565b9050919050565b61197a8161194f565b82525050565b6000608082019050611995600083018761134a565b6119a26020830186611447565b6119af604083018561134a565b6119bc6060830184611971565b95945050505050565b60006060820190506119da600083018661134a565b6119e76020830185611447565b6119f4604083018461134a565b949350505050565b600081519050611a0b816112bf565b92915050565b600060208284031215611a2757611a266112b0565b5b6000611a35848285016119fc565b91505092915050565b7f4e487b7100000000000000000000000000000000000000000000000000000000600052603260045260246000fd5b6000611a78826112b5565b9150611a83836112b5565b9250827fffffffffffffffffffffffffffffffffffffffffffffffffffffffffffffffff03821115611ab857611ab761181a565b5b828201905092915050565b6000611ace826112b5565b91507fffffffffffffffffffffffffffffffffffffffffffffffffffffffffffffffff821415611b0157611b0061181a565b5b600182019050919050565b7f596f752063616e2774207769746864726177206d6f7265207468616e20796f7560008201527f206465706f736974656400000000000000000000000000000000000000000000602082015250565b6000611b68602a83611653565b9150611b7382611b0c565b604082019050919050565b60006020820190508181036000830152611b9781611b5b565b9050919050565b7f596f752063616e2774207265706179206d6f7265207468616e20796f7520626f60008201527f72726f7765642028426f72726f77656420546f6b656e29000000000000000000602082015250565b6000611bfa603783611653565b9150611c0582611b9e565b604082019050919050565b60006020820190508181036000830152611c2981611bed565b9050919050565b6000606082019050611c45600083018661134a565b611c52602083018561134a565b611c5f6040830184611447565b949350505050565b60008115159050919050565b611c7c81611c67565b8114611c8757600080fd5b50565b600081519050611c9981611c73565b92915050565b600060208284031215611cb557611cb46112b0565b5b6000611cc384828501611c8a565b91505092915050565b6000604082019050611ce1600083018561134a565b611cee6020830184611447565b9392505050565b6000819050919050565b6000611d1a611d15611d1084611cf5565b611374565b6112b5565b9050919050565b611d2a81611cff565b82525050565b6000608082019050611d45600083018761134a565b611d526020830186611447565b611d5f6040830185611d21565b611d6c606083018461134a565b9594505050505056fea2646970667358221220879383848b8385f962032aff1bb8e4eaddb8d9e519bd43f6237aeab6166f0d1964736f6c634300080a0033",
  "linkReferences": {},
  "deployedLinkReferences": {}
}