{
  "_format": "hh-sol-artifact-1",
  "contractName": "AaveManager",
  "sourceName": "contracts/AaveManager.sol",
  "abi": [
    {
      "inputs": [],
      "stateMutability": "nonpayable",
      "type": "constructor"
    },
    {
      "anonymous": false,
      "inputs": [
        {
          "indexed": false,
          "internalType": "uint256",
          "name": "healthFactor",
          "type": "uint256"
        },
        {
          "indexed": false,
          "internalType": "uint256",
          "name": "_collateral",
          "type": "uint256"
        },
        {
          "indexed": false,
          "internalType": "uint256",
          "name": "_loan",
          "type": "uint256"
        }
      ],
      "name": "CheckCollateralAmount",
      "type": "event"
    },
    {
      "anonymous": false,
      "inputs": [
        {
          "indexed": false,
          "internalType": "uint256",
          "name": "amount",
          "type": "uint256"
        }
      ],
      "name": "Deposit",
      "type": "event"
    },
    {
      "anonymous": false,
      "inputs": [
        {
          "indexed": false,
          "internalType": "uint256",
          "name": "totalCollateralBase",
          "type": "uint256"
        },
        {
          "indexed": false,
          "internalType": "uint256",
          "name": "totalDebtBase",
          "type": "uint256"
        },
        {
          "indexed": false,
          "internalType": "uint256",
          "name": "availableBorrowsBase",
          "type": "uint256"
        },
        {
          "indexed": false,
          "internalType": "uint256",
          "name": "currentLiquidationThreshold",
          "type": "uint256"
        },
        {
          "indexed": false,
          "internalType": "uint256",
          "name": "ltv",
          "type": "uint256"
        },
        {
          "indexed": false,
          "internalType": "uint256",
          "name": "healthFactor",
          "type": "uint256"
        }
      ],
      "name": "EmitUserAccountData",
      "type": "event"
    },
    {
      "anonymous": false,
      "inputs": [
        {
          "indexed": false,
          "internalType": "address",
          "name": "_beneficiary",
          "type": "address"
        },
        {
          "indexed": false,
          "internalType": "address",
          "name": "_owner",
          "type": "address"
        },
        {
          "indexed": false,
          "internalType": "uint256",
          "name": "_healthRatio",
          "type": "uint256"
        }
      ],
      "name": "Management",
      "type": "event"
    },
    {
      "anonymous": false,
      "inputs": [
        {
          "indexed": false,
          "internalType": "address",
          "name": "_beneficiary",
          "type": "address"
        },
        {
          "indexed": false,
          "internalType": "address",
          "name": "_owner",
          "type": "address"
        },
        {
          "indexed": false,
          "internalType": "uint256",
          "name": "_amount",
          "type": "uint256"
        }
      ],
      "name": "Rebalance",
      "type": "event"
    },
    {
      "anonymous": false,
      "inputs": [
        {
          "indexed": false,
          "internalType": "address",
          "name": "token",
          "type": "address"
        },
        {
          "indexed": false,
          "internalType": "uint256",
          "name": "healthRatio",
          "type": "uint256"
        }
      ],
      "name": "VerifySettings",
      "type": "event"
    },
    {
      "anonymous": false,
      "inputs": [
        {
          "indexed": false,
          "internalType": "uint256",
          "name": "amount",
          "type": "uint256"
        }
      ],
      "name": "Withdrawal",
      "type": "event"
    },
    {
      "inputs": [],
      "name": "YTestToken",
      "outputs": [
        {
          "internalType": "contract IERC20",
          "name": "",
          "type": "address"
        }
      ],
      "stateMutability": "view",
      "type": "function"
    },
    {
      "inputs": [],
      "name": "aPool",
      "outputs": [
        {
          "internalType": "contract IPool",
          "name": "",
          "type": "address"
        }
      ],
      "stateMutability": "view",
      "type": "function"
    },
    {
      "inputs": [],
      "name": "bAToken",
      "outputs": [
        {
          "internalType": "address",
          "name": "",
          "type": "address"
        }
      ],
      "stateMutability": "view",
      "type": "function"
    },
    {
      "inputs": [
        {
          "internalType": "address",
          "name": "",
          "type": "address"
        }
      ],
      "name": "balances",
      "outputs": [
        {
          "internalType": "uint256",
          "name": "",
          "type": "uint256"
        }
      ],
      "stateMutability": "view",
      "type": "function"
    },
    {
      "inputs": [],
      "name": "borrowedToken",
      "outputs": [
        {
          "internalType": "address",
          "name": "",
          "type": "address"
        }
      ],
      "stateMutability": "view",
      "type": "function"
    },
    {
      "inputs": [],
      "name": "cAToken",
      "outputs": [
        {
          "internalType": "address",
          "name": "",
          "type": "address"
        }
      ],
      "stateMutability": "view",
      "type": "function"
    },
    {
      "inputs": [],
      "name": "collateralToken",
      "outputs": [
        {
          "internalType": "address",
          "name": "",
          "type": "address"
        }
      ],
      "stateMutability": "view",
      "type": "function"
    },
    {
      "inputs": [
        {
          "internalType": "uint256",
          "name": "collateral",
          "type": "uint256"
        },
        {
          "internalType": "uint256",
          "name": "healthRatio",
          "type": "uint256"
        },
        {
          "internalType": "uint256",
          "name": "loanValueInCollateralToken",
          "type": "uint256"
        },
        {
          "internalType": "uint256",
          "name": "loanValueInBorrowedToken",
          "type": "uint256"
        }
      ],
      "name": "deposit",
      "outputs": [],
      "stateMutability": "payable",
      "type": "function"
    },
    {
      "inputs": [
        {
          "internalType": "address",
          "name": "",
          "type": "address"
        }
      ],
      "name": "healthRatios",
      "outputs": [
        {
          "internalType": "uint256",
          "name": "",
          "type": "uint256"
        }
      ],
      "stateMutability": "view",
      "type": "function"
    },
    {
      "inputs": [],
      "name": "poolAddress",
      "outputs": [
        {
          "internalType": "address",
          "name": "",
          "type": "address"
        }
      ],
      "stateMutability": "view",
      "type": "function"
    },
    {
      "inputs": [],
      "name": "yVault",
      "outputs": [
        {
          "internalType": "contract VaultAPI",
          "name": "",
          "type": "address"
        }
      ],
      "stateMutability": "view",
      "type": "function"
    },
    {
      "inputs": [],
      "name": "yVaultAddress",
      "outputs": [
        {
          "internalType": "address",
          "name": "",
          "type": "address"
        }
      ],
      "stateMutability": "view",
      "type": "function"
    }
  ],
  "bytecode": "0x61016060405234801561001157600080fd5b5073368eedf3f56ad10b9bc57eed4dac65b26bb667f673ffffffffffffffffffffffffffffffffffffffff1660c08173ffffffffffffffffffffffffffffffffffffffff168152505073d29f4e410abdaafdbb6b011ac854ac170e92f07a73ffffffffffffffffffffffffffffffffffffffff1660e08173ffffffffffffffffffffffffffffffffffffffff168152505073368eedf3f56ad10b9bc57eed4dac65b26bb667f673ffffffffffffffffffffffffffffffffffffffff166101008173ffffffffffffffffffffffffffffffffffffffff168152505073d29f4e410abdaafdbb6b011ac854ac170e92f07a73ffffffffffffffffffffffffffffffffffffffff166101208173ffffffffffffffffffffffffffffffffffffffff168152505073f8ebaf73fc7da042494857822976cd8f02263b4973ffffffffffffffffffffffffffffffffffffffff166101408173ffffffffffffffffffffffffffffffffffffffff168152505073a2025b15a1757311bfd68cb14eaefcc237af5b4373ffffffffffffffffffffffffffffffffffffffff1660808173ffffffffffffffffffffffffffffffffffffffff16815250507307c725d58437504ca5f814ae406e70e21c5e8e9e73ffffffffffffffffffffffffffffffffffffffff1660a08173ffffffffffffffffffffffffffffffffffffffff168152505060805160a05160c05160e0516101005161012051610140516112736102ad6000396000818161054301526109c70152600081816106eb0152610967015260008181610622015281816108940152610a7d01526000818161057f01526109a30152600081816102c701526104a00152600081816108d00152610a590152600081816103c3015281816104640152818161065e0152610a1101526112736000f3fe6080604052600436106100a75760003560e01c8063935393d211610064578063935393d2146101c35780639b4c7386146101ee578063b2016bd414610219578063b510f06314610244578063c710ccd61461026f578063e595cbb61461029a576100a7565b80631755ff21146100ac5780632505c3d9146100d757806327e235e3146100f357806333303f8e1461013057806373c97f051461015b57806385e61f6414610198575b600080fd5b3480156100b857600080fd5b506100c16102c5565b6040516100ce9190610ae0565b60405180910390f35b6100f160048036038101906100ec9190610b36565b6102e9565b005b3480156100ff57600080fd5b5061011a60048036038101906101159190610bc9565b61094d565b6040516101279190610c05565b60405180910390f35b34801561013c57600080fd5b50610145610965565b6040516101529190610c7f565b60405180910390f35b34801561016757600080fd5b50610182600480360381019061017d9190610bc9565b610989565b60405161018f9190610c05565b60405180910390f35b3480156101a457600080fd5b506101ad6109a1565b6040516101ba9190610ae0565b60405180910390f35b3480156101cf57600080fd5b506101d86109c5565b6040516101e59190610cbb565b60405180910390f35b3480156101fa57600080fd5b506102036109e9565b6040516102109190610ae0565b60405180910390f35b34801561022557600080fd5b5061022e610a0f565b60405161023b9190610ae0565b60405180910390f35b34801561025057600080fd5b50610259610a33565b6040516102669190610ae0565b60405180910390f35b34801561027b57600080fd5b50610284610a57565b6040516102919190610ae0565b60405180910390f35b3480156102a657600080fd5b506102af610a7b565b6040516102bc9190610cf7565b60405180910390f35b7f000000000000000000000000000000000000000000000000000000000000000081565b607d826064866102f99190610d41565b6103039190610dca565b11610343576040517f08c379a000000000000000000000000000000000000000000000000000000000815260040161033a90610e7e565b60405180910390fd5b607d8311610386576040517f08c379a000000000000000000000000000000000000000000000000000000000815260040161037d90610f10565b60405180910390fd5b7f75beaa91d612bcfbc5ad7549a380c1643d4ae08c7757159f96c950cf5528d19e8385846040516103b993929190610f30565b60405180910390a17f000000000000000000000000000000000000000000000000000000000000000073ffffffffffffffffffffffffffffffffffffffff166323b872dd3330876040518463ffffffff1660e01b815260040161041e93929190610f67565b6020604051808303816000875af115801561043d573d6000803e3d6000fd5b505050506040513d601f19601f820116820180604052508101906104619190610fd6565b507f000000000000000000000000000000000000000000000000000000000000000073ffffffffffffffffffffffffffffffffffffffff1663095ea7b37f00000000000000000000000000000000000000000000000000000000000000007fffffffffffffffffffffffffffffffffffffffffffffffffffffffffffffffff6040518363ffffffff1660e01b81526004016104fd929190611003565b6020604051808303816000875af115801561051c573d6000803e3d6000fd5b505050506040513d601f19601f820116820180604052508101906105409190610fd6565b507f000000000000000000000000000000000000000000000000000000000000000073ffffffffffffffffffffffffffffffffffffffff1663095ea7b37f00000000000000000000000000000000000000000000000000000000000000007fffffffffffffffffffffffffffffffffffffffffffffffffffffffffffffffff6040518363ffffffff1660e01b81526004016105dc929190611003565b6020604051808303816000875af11580156105fb573d6000803e3d6000fd5b505050506040513d601f19601f8201168201806040525081019061061f9190610fd6565b507f000000000000000000000000000000000000000000000000000000000000000073ffffffffffffffffffffffffffffffffffffffff1663617ba0377f00000000000000000000000000000000000000000000000000000000000000006064858761068b9190610d41565b6106959190610dca565b3060006040518563ffffffff1660e01b81526004016106b79493929190611075565b600060405180830381600087803b1580156106d157600080fd5b505af11580156106e5573d6000803e3d6000fd5b505050507f000000000000000000000000000000000000000000000000000000000000000073ffffffffffffffffffffffffffffffffffffffff16636e553f65606484866107339190610d41565b61073d9190610dca565b8661074891906110ba565b306040518363ffffffff1660e01b81526004016107669291906110ee565b6020604051808303816000875af1158015610785573d6000803e3d6000fd5b505050506040513d601f19601f820116820180604052508101906107a9919061112c565b5083600260003373ffffffffffffffffffffffffffffffffffffffff1673ffffffffffffffffffffffffffffffffffffffff16815260200190815260200160002060008282546107f99190611159565b9250508190555082600360003373ffffffffffffffffffffffffffffffffffffffff1673ffffffffffffffffffffffffffffffffffffffff168152602001908152602001600020819055507f4d6ce1e535dbade1c23defba91e23b8f791ce5edc0cc320257a2b364e4e38426606483856108739190610d41565b61087d9190610dca565b60405161088a9190610c05565b60405180910390a17f000000000000000000000000000000000000000000000000000000000000000073ffffffffffffffffffffffffffffffffffffffff1663a415bcad7f00000000000000000000000000000000000000000000000000000000000000008360026000306040518663ffffffff1660e01b81526004016109159594939291906111ea565b600060405180830381600087803b15801561092f57600080fd5b505af1158015610943573d6000803e3d6000fd5b5050505050505050565b60026020528060005260406000206000915090505481565b7f000000000000000000000000000000000000000000000000000000000000000081565b60036020528060005260406000206000915090505481565b7f000000000000000000000000000000000000000000000000000000000000000081565b7f000000000000000000000000000000000000000000000000000000000000000081565b600160009054906101000a900473ffffffffffffffffffffffffffffffffffffffff1681565b7f000000000000000000000000000000000000000000000000000000000000000081565b60008054906101000a900473ffffffffffffffffffffffffffffffffffffffff1681565b7f000000000000000000000000000000000000000000000000000000000000000081565b7f000000000000000000000000000000000000000000000000000000000000000081565b600073ffffffffffffffffffffffffffffffffffffffff82169050919050565b6000610aca82610a9f565b9050919050565b610ada81610abf565b82525050565b6000602082019050610af56000830184610ad1565b92915050565b600080fd5b6000819050919050565b610b1381610b00565b8114610b1e57600080fd5b50565b600081359050610b3081610b0a565b92915050565b60008060008060808587031215610b5057610b4f610afb565b5b6000610b5e87828801610b21565b9450506020610b6f87828801610b21565b9350506040610b8087828801610b21565b9250506060610b9187828801610b21565b91505092959194509250565b610ba681610abf565b8114610bb157600080fd5b50565b600081359050610bc381610b9d565b92915050565b600060208284031215610bdf57610bde610afb565b5b6000610bed84828501610bb4565b91505092915050565b610bff81610b00565b82525050565b6000602082019050610c1a6000830184610bf6565b92915050565b6000819050919050565b6000610c45610c40610c3b84610a9f565b610c20565b610a9f565b9050919050565b6000610c5782610c2a565b9050919050565b6000610c6982610c4c565b9050919050565b610c7981610c5e565b82525050565b6000602082019050610c946000830184610c70565b92915050565b6000610ca582610c4c565b9050919050565b610cb581610c9a565b82525050565b6000602082019050610cd06000830184610cac565b92915050565b6000610ce182610c4c565b9050919050565b610cf181610cd6565b82525050565b6000602082019050610d0c6000830184610ce8565b92915050565b7f4e487b7100000000000000000000000000000000000000000000000000000000600052601160045260246000fd5b6000610d4c82610b00565b9150610d5783610b00565b9250817fffffffffffffffffffffffffffffffffffffffffffffffffffffffffffffffff0483118215151615610d9057610d8f610d12565b5b828202905092915050565b7f4e487b7100000000000000000000000000000000000000000000000000000000600052601260045260246000fd5b6000610dd582610b00565b9150610de083610b00565b925082610df057610def610d9b565b5b828204905092915050565b600082825260208201905092915050565b7f4d6178696d756d206865616c746820726174696f2068617320746f206265206760008201527f726561746572207468616e203132352500000000000000000000000000000000602082015250565b6000610e68603083610dfb565b9150610e7382610e0c565b604082019050919050565b60006020820190508181036000830152610e9781610e5b565b9050919050565b7f4865616c746820726174696f2068617320746f2062652067726561746572207460008201527f68616e2031323525000000000000000000000000000000000000000000000000602082015250565b6000610efa602883610dfb565b9150610f0582610e9e565b604082019050919050565b60006020820190508181036000830152610f2981610eed565b9050919050565b6000606082019050610f456000830186610bf6565b610f526020830185610bf6565b610f5f6040830184610bf6565b949350505050565b6000606082019050610f7c6000830186610ad1565b610f896020830185610ad1565b610f966040830184610bf6565b949350505050565b60008115159050919050565b610fb381610f9e565b8114610fbe57600080fd5b50565b600081519050610fd081610faa565b92915050565b600060208284031215610fec57610feb610afb565b5b6000610ffa84828501610fc1565b91505092915050565b60006040820190506110186000830185610ad1565b6110256020830184610bf6565b9392505050565b6000819050919050565b600061ffff82169050919050565b600061105f61105a6110558461102c565b610c20565b611036565b9050919050565b61106f81611044565b82525050565b600060808201905061108a6000830187610ad1565b6110976020830186610bf6565b6110a46040830185610ad1565b6110b16060830184611066565b95945050505050565b60006110c582610b00565b91506110d083610b00565b9250828210156110e3576110e2610d12565b5b828203905092915050565b60006040820190506111036000830185610bf6565b6111106020830184610ad1565b9392505050565b60008151905061112681610b0a565b92915050565b60006020828403121561114257611141610afb565b5b600061115084828501611117565b91505092915050565b600061116482610b00565b915061116f83610b00565b9250827fffffffffffffffffffffffffffffffffffffffffffffffffffffffffffffffff038211156111a4576111a3610d12565b5b828201905092915050565b6000819050919050565b60006111d46111cf6111ca846111af565b610c20565b610b00565b9050919050565b6111e4816111b9565b82525050565b600060a0820190506111ff6000830188610ad1565b61120c6020830187610bf6565b61121960408301866111db565b6112266060830185611066565b6112336080830184610ad1565b969550505050505056fea26469706673582212207c9e217c12358580c9d7a9c3d282140cda2a7d5118a9e16876499f523c1937ae64736f6c634300080a0033",
  "linkReferences": {},
  "deployedLinkReferences": {}
}