{
  "_format": "hh-sol-artifact-1",
  "contractName": "AaveManager",
  "sourceName": "contracts/AaveManager.sol",
  "abi": [
    {
      "inputs": [],
      "stateMutability": "nonpayable",
      "type": "constructor"
    },
    {
      "anonymous": false,
      "inputs": [
        {
          "indexed": false,
          "internalType": "uint256",
          "name": "healthFactor",
          "type": "uint256"
        },
        {
          "indexed": false,
          "internalType": "uint256",
          "name": "_collateral",
          "type": "uint256"
        },
        {
          "indexed": false,
          "internalType": "uint256",
          "name": "_loan",
          "type": "uint256"
        }
      ],
      "name": "CheckCollateralAmount",
      "type": "event"
    },
    {
      "anonymous": false,
      "inputs": [
        {
          "indexed": false,
          "internalType": "uint256",
          "name": "amount",
          "type": "uint256"
        }
      ],
      "name": "Deposit",
      "type": "event"
    },
    {
      "anonymous": false,
      "inputs": [
        {
          "indexed": false,
          "internalType": "uint256",
          "name": "totalCollateralBase",
          "type": "uint256"
        },
        {
          "indexed": false,
          "internalType": "uint256",
          "name": "totalDebtBase",
          "type": "uint256"
        },
        {
          "indexed": false,
          "internalType": "uint256",
          "name": "availableBorrowsBase",
          "type": "uint256"
        },
        {
          "indexed": false,
          "internalType": "uint256",
          "name": "currentLiquidationThreshold",
          "type": "uint256"
        },
        {
          "indexed": false,
          "internalType": "uint256",
          "name": "ltv",
          "type": "uint256"
        },
        {
          "indexed": false,
          "internalType": "uint256",
          "name": "healthFactor",
          "type": "uint256"
        }
      ],
      "name": "EmitUserAccountData",
      "type": "event"
    },
    {
      "anonymous": false,
      "inputs": [
        {
          "indexed": false,
          "internalType": "address",
          "name": "_beneficiary",
          "type": "address"
        },
        {
          "indexed": false,
          "internalType": "address",
          "name": "_owner",
          "type": "address"
        },
        {
          "indexed": false,
          "internalType": "uint256",
          "name": "_healthRatio",
          "type": "uint256"
        }
      ],
      "name": "Management",
      "type": "event"
    },
    {
      "anonymous": false,
      "inputs": [
        {
          "indexed": false,
          "internalType": "address",
          "name": "_beneficiary",
          "type": "address"
        },
        {
          "indexed": false,
          "internalType": "address",
          "name": "_owner",
          "type": "address"
        },
        {
          "indexed": false,
          "internalType": "uint256",
          "name": "_amount",
          "type": "uint256"
        }
      ],
      "name": "Rebalance",
      "type": "event"
    },
    {
      "anonymous": false,
      "inputs": [
        {
          "indexed": false,
          "internalType": "address",
          "name": "token",
          "type": "address"
        },
        {
          "indexed": false,
          "internalType": "uint256",
          "name": "healthRatio",
          "type": "uint256"
        }
      ],
      "name": "VerifySettings",
      "type": "event"
    },
    {
      "anonymous": false,
      "inputs": [
        {
          "indexed": false,
          "internalType": "uint256",
          "name": "amount",
          "type": "uint256"
        }
      ],
      "name": "Withdrawal",
      "type": "event"
    },
    {
      "inputs": [],
      "name": "YTestToken",
      "outputs": [
        {
          "internalType": "contract IERC20",
          "name": "",
          "type": "address"
        }
      ],
      "stateMutability": "view",
      "type": "function"
    },
    {
      "inputs": [],
      "name": "aPool",
      "outputs": [
        {
          "internalType": "contract IPool",
          "name": "",
          "type": "address"
        }
      ],
      "stateMutability": "view",
      "type": "function"
    },
    {
      "inputs": [],
      "name": "bAToken",
      "outputs": [
        {
          "internalType": "address",
          "name": "",
          "type": "address"
        }
      ],
      "stateMutability": "view",
      "type": "function"
    },
    {
      "inputs": [
        {
          "internalType": "address",
          "name": "",
          "type": "address"
        }
      ],
      "name": "balances",
      "outputs": [
        {
          "internalType": "uint256",
          "name": "",
          "type": "uint256"
        }
      ],
      "stateMutability": "view",
      "type": "function"
    },
    {
      "inputs": [],
      "name": "borrowedToken",
      "outputs": [
        {
          "internalType": "address",
          "name": "",
          "type": "address"
        }
      ],
      "stateMutability": "view",
      "type": "function"
    },
    {
      "inputs": [],
      "name": "cAToken",
      "outputs": [
        {
          "internalType": "address",
          "name": "",
          "type": "address"
        }
      ],
      "stateMutability": "view",
      "type": "function"
    },
    {
      "inputs": [],
      "name": "collateralToken",
      "outputs": [
        {
          "internalType": "address",
          "name": "",
          "type": "address"
        }
      ],
      "stateMutability": "view",
      "type": "function"
    },
    {
      "inputs": [
        {
          "internalType": "uint256",
          "name": "collateral",
          "type": "uint256"
        },
        {
          "internalType": "uint256",
          "name": "healthRatio",
          "type": "uint256"
        },
        {
          "internalType": "uint256",
          "name": "loanValueInCollateralToken",
          "type": "uint256"
        },
        {
          "internalType": "uint256",
          "name": "loanValueInBorrowedToken",
          "type": "uint256"
        }
      ],
      "name": "deposit",
      "outputs": [],
      "stateMutability": "payable",
      "type": "function"
    },
    {
      "inputs": [
        {
          "internalType": "address",
          "name": "",
          "type": "address"
        }
      ],
      "name": "healthRatios",
      "outputs": [
        {
          "internalType": "uint256",
          "name": "",
          "type": "uint256"
        }
      ],
      "stateMutability": "view",
      "type": "function"
    },
    {
      "inputs": [],
      "name": "poolAddress",
      "outputs": [
        {
          "internalType": "address",
          "name": "",
          "type": "address"
        }
      ],
      "stateMutability": "view",
      "type": "function"
    },
    {
      "inputs": [],
      "name": "yVault",
      "outputs": [
        {
          "internalType": "contract VaultAPI",
          "name": "",
          "type": "address"
        }
      ],
      "stateMutability": "view",
      "type": "function"
    },
    {
      "inputs": [],
      "name": "yVaultAddress",
      "outputs": [
        {
          "internalType": "address",
          "name": "",
          "type": "address"
        }
      ],
      "stateMutability": "view",
      "type": "function"
    }
  ],
  "bytecode": "0x61016060405234801561001157600080fd5b5073368eedf3f56ad10b9bc57eed4dac65b26bb667f673ffffffffffffffffffffffffffffffffffffffff1660c08173ffffffffffffffffffffffffffffffffffffffff168152505073d29f4e410abdaafdbb6b011ac854ac170e92f07a73ffffffffffffffffffffffffffffffffffffffff1660e08173ffffffffffffffffffffffffffffffffffffffff168152505073368eedf3f56ad10b9bc57eed4dac65b26bb667f673ffffffffffffffffffffffffffffffffffffffff166101008173ffffffffffffffffffffffffffffffffffffffff168152505073d29f4e410abdaafdbb6b011ac854ac170e92f07a73ffffffffffffffffffffffffffffffffffffffff166101208173ffffffffffffffffffffffffffffffffffffffff168152505073f8ebaf73fc7da042494857822976cd8f02263b4973ffffffffffffffffffffffffffffffffffffffff166101408173ffffffffffffffffffffffffffffffffffffffff168152505073a2025b15a1757311bfd68cb14eaefcc237af5b4373ffffffffffffffffffffffffffffffffffffffff1660808173ffffffffffffffffffffffffffffffffffffffff16815250507307c725d58437504ca5f814ae406e70e21c5e8e9e73ffffffffffffffffffffffffffffffffffffffff1660a08173ffffffffffffffffffffffffffffffffffffffff168152505060805160a05160c05160e0516101005161012051610140516111136102a6600039600081816105430152610906015260006108a6015260008181610622015281816107d301526109bc01526000818161057f01526108e20152600081816102c701526104a001526000818161080f01526109980152600081816103c3015281816104640152818161065e015261095001526111136000f3fe6080604052600436106100a75760003560e01c8063935393d211610064578063935393d2146101c35780639b4c7386146101ee578063b2016bd414610219578063b510f06314610244578063c710ccd61461026f578063e595cbb61461029a576100a7565b80631755ff21146100ac5780632505c3d9146100d757806327e235e3146100f357806333303f8e1461013057806373c97f051461015b57806385e61f6414610198575b600080fd5b3480156100b857600080fd5b506100c16102c5565b6040516100ce9190610a1f565b60405180910390f35b6100f160048036038101906100ec9190610a75565b6102e9565b005b3480156100ff57600080fd5b5061011a60048036038101906101159190610b08565b61088c565b6040516101279190610b44565b60405180910390f35b34801561013c57600080fd5b506101456108a4565b6040516101529190610bbe565b60405180910390f35b34801561016757600080fd5b50610182600480360381019061017d9190610b08565b6108c8565b60405161018f9190610b44565b60405180910390f35b3480156101a457600080fd5b506101ad6108e0565b6040516101ba9190610a1f565b60405180910390f35b3480156101cf57600080fd5b506101d8610904565b6040516101e59190610bfa565b60405180910390f35b3480156101fa57600080fd5b50610203610928565b6040516102109190610a1f565b60405180910390f35b34801561022557600080fd5b5061022e61094e565b60405161023b9190610a1f565b60405180910390f35b34801561025057600080fd5b50610259610972565b6040516102669190610a1f565b60405180910390f35b34801561027b57600080fd5b50610284610996565b6040516102919190610a1f565b60405180910390f35b3480156102a657600080fd5b506102af6109ba565b6040516102bc9190610c36565b60405180910390f35b7f000000000000000000000000000000000000000000000000000000000000000081565b607d826064866102f99190610c80565b6103039190610d09565b11610343576040517f08c379a000000000000000000000000000000000000000000000000000000000815260040161033a90610dbd565b60405180910390fd5b607d8311610386576040517f08c379a000000000000000000000000000000000000000000000000000000000815260040161037d90610e4f565b60405180910390fd5b7f75beaa91d612bcfbc5ad7549a380c1643d4ae08c7757159f96c950cf5528d19e8385846040516103b993929190610e6f565b60405180910390a17f000000000000000000000000000000000000000000000000000000000000000073ffffffffffffffffffffffffffffffffffffffff166323b872dd3330876040518463ffffffff1660e01b815260040161041e93929190610ea6565b6020604051808303816000875af115801561043d573d6000803e3d6000fd5b505050506040513d601f19601f820116820180604052508101906104619190610f15565b507f000000000000000000000000000000000000000000000000000000000000000073ffffffffffffffffffffffffffffffffffffffff1663095ea7b37f00000000000000000000000000000000000000000000000000000000000000007fffffffffffffffffffffffffffffffffffffffffffffffffffffffffffffffff6040518363ffffffff1660e01b81526004016104fd929190610f42565b6020604051808303816000875af115801561051c573d6000803e3d6000fd5b505050506040513d601f19601f820116820180604052508101906105409190610f15565b507f000000000000000000000000000000000000000000000000000000000000000073ffffffffffffffffffffffffffffffffffffffff1663095ea7b37f00000000000000000000000000000000000000000000000000000000000000007fffffffffffffffffffffffffffffffffffffffffffffffffffffffffffffffff6040518363ffffffff1660e01b81526004016105dc929190610f42565b6020604051808303816000875af11580156105fb573d6000803e3d6000fd5b505050506040513d601f19601f8201168201806040525081019061061f9190610f15565b507f000000000000000000000000000000000000000000000000000000000000000073ffffffffffffffffffffffffffffffffffffffff1663617ba0377f00000000000000000000000000000000000000000000000000000000000000006064858761068b9190610c80565b6106959190610d09565b3060006040518563ffffffff1660e01b81526004016106b79493929190610fb4565b600060405180830381600087803b1580156106d157600080fd5b505af11580156106e5573d6000803e3d6000fd5b5050505083600260003373ffffffffffffffffffffffffffffffffffffffff1673ffffffffffffffffffffffffffffffffffffffff16815260200190815260200160002060008282546107389190610ff9565b9250508190555082600360003373ffffffffffffffffffffffffffffffffffffffff1673ffffffffffffffffffffffffffffffffffffffff168152602001908152602001600020819055507f4d6ce1e535dbade1c23defba91e23b8f791ce5edc0cc320257a2b364e4e38426606483856107b29190610c80565b6107bc9190610d09565b6040516107c99190610b44565b60405180910390a17f000000000000000000000000000000000000000000000000000000000000000073ffffffffffffffffffffffffffffffffffffffff1663a415bcad7f00000000000000000000000000000000000000000000000000000000000000008360016000336040518663ffffffff1660e01b815260040161085495949392919061108a565b600060405180830381600087803b15801561086e57600080fd5b505af1158015610882573d6000803e3d6000fd5b5050505050505050565b60026020528060005260406000206000915090505481565b7f000000000000000000000000000000000000000000000000000000000000000081565b60036020528060005260406000206000915090505481565b7f000000000000000000000000000000000000000000000000000000000000000081565b7f000000000000000000000000000000000000000000000000000000000000000081565b600160009054906101000a900473ffffffffffffffffffffffffffffffffffffffff1681565b7f000000000000000000000000000000000000000000000000000000000000000081565b60008054906101000a900473ffffffffffffffffffffffffffffffffffffffff1681565b7f000000000000000000000000000000000000000000000000000000000000000081565b7f000000000000000000000000000000000000000000000000000000000000000081565b600073ffffffffffffffffffffffffffffffffffffffff82169050919050565b6000610a09826109de565b9050919050565b610a19816109fe565b82525050565b6000602082019050610a346000830184610a10565b92915050565b600080fd5b6000819050919050565b610a5281610a3f565b8114610a5d57600080fd5b50565b600081359050610a6f81610a49565b92915050565b60008060008060808587031215610a8f57610a8e610a3a565b5b6000610a9d87828801610a60565b9450506020610aae87828801610a60565b9350506040610abf87828801610a60565b9250506060610ad087828801610a60565b91505092959194509250565b610ae5816109fe565b8114610af057600080fd5b50565b600081359050610b0281610adc565b92915050565b600060208284031215610b1e57610b1d610a3a565b5b6000610b2c84828501610af3565b91505092915050565b610b3e81610a3f565b82525050565b6000602082019050610b596000830184610b35565b92915050565b6000819050919050565b6000610b84610b7f610b7a846109de565b610b5f565b6109de565b9050919050565b6000610b9682610b69565b9050919050565b6000610ba882610b8b565b9050919050565b610bb881610b9d565b82525050565b6000602082019050610bd36000830184610baf565b92915050565b6000610be482610b8b565b9050919050565b610bf481610bd9565b82525050565b6000602082019050610c0f6000830184610beb565b92915050565b6000610c2082610b8b565b9050919050565b610c3081610c15565b82525050565b6000602082019050610c4b6000830184610c27565b92915050565b7f4e487b7100000000000000000000000000000000000000000000000000000000600052601160045260246000fd5b6000610c8b82610a3f565b9150610c9683610a3f565b9250817fffffffffffffffffffffffffffffffffffffffffffffffffffffffffffffffff0483118215151615610ccf57610cce610c51565b5b828202905092915050565b7f4e487b7100000000000000000000000000000000000000000000000000000000600052601260045260246000fd5b6000610d1482610a3f565b9150610d1f83610a3f565b925082610d2f57610d2e610cda565b5b828204905092915050565b600082825260208201905092915050565b7f4d6178696d756d206865616c746820726174696f2068617320746f206265206760008201527f726561746572207468616e203132352500000000000000000000000000000000602082015250565b6000610da7603083610d3a565b9150610db282610d4b565b604082019050919050565b60006020820190508181036000830152610dd681610d9a565b9050919050565b7f4865616c746820726174696f2068617320746f2062652067726561746572207460008201527f68616e2031323525000000000000000000000000000000000000000000000000602082015250565b6000610e39602883610d3a565b9150610e4482610ddd565b604082019050919050565b60006020820190508181036000830152610e6881610e2c565b9050919050565b6000606082019050610e846000830186610b35565b610e916020830185610b35565b610e9e6040830184610b35565b949350505050565b6000606082019050610ebb6000830186610a10565b610ec86020830185610a10565b610ed56040830184610b35565b949350505050565b60008115159050919050565b610ef281610edd565b8114610efd57600080fd5b50565b600081519050610f0f81610ee9565b92915050565b600060208284031215610f2b57610f2a610a3a565b5b6000610f3984828501610f00565b91505092915050565b6000604082019050610f576000830185610a10565b610f646020830184610b35565b9392505050565b6000819050919050565b600061ffff82169050919050565b6000610f9e610f99610f9484610f6b565b610b5f565b610f75565b9050919050565b610fae81610f83565b82525050565b6000608082019050610fc96000830187610a10565b610fd66020830186610b35565b610fe36040830185610a10565b610ff06060830184610fa5565b95945050505050565b600061100482610a3f565b915061100f83610a3f565b9250827fffffffffffffffffffffffffffffffffffffffffffffffffffffffffffffffff0382111561104457611043610c51565b5b828201905092915050565b6000819050919050565b600061107461106f61106a8461104f565b610b5f565b610a3f565b9050919050565b61108481611059565b82525050565b600060a08201905061109f6000830188610a10565b6110ac6020830187610b35565b6110b9604083018661107b565b6110c66060830185610fa5565b6110d36080830184610a10565b969550505050505056fea2646970667358221220ebceb6da71b7df9481aa7be9ff6f70412a98cb46e540b00cd3760109a113782e64736f6c634300080a0033",
  "linkReferences": {},
  "deployedLinkReferences": {}
}