{
  "_format": "hh-sol-artifact-1",
  "contractName": "AaveManager",
  "sourceName": "contracts/AaveManager.sol",
  "abi": [
    {
      "inputs": [
        {
          "internalType": "address",
          "name": "_collateralToken",
          "type": "address"
        },
        {
          "internalType": "address",
          "name": "_borrowedToken",
          "type": "address"
        },
        {
          "internalType": "address",
          "name": "_poolAddress",
          "type": "address"
        }
      ],
      "stateMutability": "nonpayable",
      "type": "constructor"
    },
    {
      "anonymous": false,
      "inputs": [
        {
          "indexed": false,
          "internalType": "uint256",
          "name": "healthFactor",
          "type": "uint256"
        },
        {
          "indexed": false,
          "internalType": "uint256",
          "name": "_collateral",
          "type": "uint256"
        },
        {
          "indexed": false,
          "internalType": "uint256",
          "name": "_loan",
          "type": "uint256"
        }
      ],
      "name": "CheckCollateralAmount",
      "type": "event"
    },
    {
      "anonymous": false,
      "inputs": [
        {
          "indexed": false,
          "internalType": "uint256",
          "name": "amount",
          "type": "uint256"
        }
      ],
      "name": "Deposit",
      "type": "event"
    },
    {
      "anonymous": false,
      "inputs": [
        {
          "indexed": false,
          "internalType": "address",
          "name": "_beneficiary",
          "type": "address"
        },
        {
          "indexed": false,
          "internalType": "address",
          "name": "_owner",
          "type": "address"
        },
        {
          "indexed": false,
          "internalType": "uint256",
          "name": "_healthRatio",
          "type": "uint256"
        }
      ],
      "name": "Management",
      "type": "event"
    },
    {
      "anonymous": false,
      "inputs": [
        {
          "indexed": false,
          "internalType": "address",
          "name": "_beneficiary",
          "type": "address"
        },
        {
          "indexed": false,
          "internalType": "address",
          "name": "_owner",
          "type": "address"
        },
        {
          "indexed": false,
          "internalType": "uint256",
          "name": "_amount",
          "type": "uint256"
        }
      ],
      "name": "Rebalance",
      "type": "event"
    },
    {
      "anonymous": false,
      "inputs": [
        {
          "indexed": false,
          "internalType": "address",
          "name": "token",
          "type": "address"
        },
        {
          "indexed": false,
          "internalType": "uint256",
          "name": "healthRatio",
          "type": "uint256"
        }
      ],
      "name": "VerifySettings",
      "type": "event"
    },
    {
      "anonymous": false,
      "inputs": [
        {
          "indexed": false,
          "internalType": "uint256",
          "name": "amount",
          "type": "uint256"
        }
      ],
      "name": "Withdrawal",
      "type": "event"
    },
    {
      "inputs": [],
      "name": "bAToken",
      "outputs": [
        {
          "internalType": "address",
          "name": "",
          "type": "address"
        }
      ],
      "stateMutability": "view",
      "type": "function"
    },
    {
      "inputs": [
        {
          "internalType": "address",
          "name": "",
          "type": "address"
        }
      ],
      "name": "balances",
      "outputs": [
        {
          "internalType": "uint256",
          "name": "",
          "type": "uint256"
        }
      ],
      "stateMutability": "view",
      "type": "function"
    },
    {
      "inputs": [],
      "name": "borrowedToken",
      "outputs": [
        {
          "internalType": "address",
          "name": "",
          "type": "address"
        }
      ],
      "stateMutability": "view",
      "type": "function"
    },
    {
      "inputs": [],
      "name": "cAToken",
      "outputs": [
        {
          "internalType": "address",
          "name": "",
          "type": "address"
        }
      ],
      "stateMutability": "view",
      "type": "function"
    },
    {
      "inputs": [],
      "name": "collateralToken",
      "outputs": [
        {
          "internalType": "address",
          "name": "",
          "type": "address"
        }
      ],
      "stateMutability": "view",
      "type": "function"
    },
    {
      "inputs": [
        {
          "internalType": "uint256",
          "name": "collateral",
          "type": "uint256"
        },
        {
          "internalType": "uint256",
          "name": "healthRatio",
          "type": "uint256"
        },
        {
          "internalType": "uint256",
          "name": "loan",
          "type": "uint256"
        }
      ],
      "name": "deposit",
      "outputs": [],
      "stateMutability": "payable",
      "type": "function"
    },
    {
      "inputs": [],
      "name": "getUserData",
      "outputs": [
        {
          "internalType": "uint256",
          "name": "totalCollateralBase",
          "type": "uint256"
        },
        {
          "internalType": "uint256",
          "name": "totalDebtBase",
          "type": "uint256"
        },
        {
          "internalType": "uint256",
          "name": "availableBorrowsBase",
          "type": "uint256"
        },
        {
          "internalType": "uint256",
          "name": "currentLiquidationThreshold",
          "type": "uint256"
        },
        {
          "internalType": "uint256",
          "name": "ltv",
          "type": "uint256"
        },
        {
          "internalType": "uint256",
          "name": "healthFactor",
          "type": "uint256"
        }
      ],
      "stateMutability": "nonpayable",
      "type": "function"
    },
    {
      "inputs": [
        {
          "internalType": "address",
          "name": "",
          "type": "address"
        }
      ],
      "name": "healthRatios",
      "outputs": [
        {
          "internalType": "uint256",
          "name": "",
          "type": "uint256"
        }
      ],
      "stateMutability": "view",
      "type": "function"
    },
    {
      "inputs": [
        {
          "internalType": "uint256",
          "name": "newHealthRatio",
          "type": "uint256"
        }
      ],
      "name": "manage",
      "outputs": [],
      "stateMutability": "nonpayable",
      "type": "function"
    },
    {
      "inputs": [],
      "name": "poolAddress",
      "outputs": [
        {
          "internalType": "address",
          "name": "",
          "type": "address"
        }
      ],
      "stateMutability": "view",
      "type": "function"
    },
    {
      "inputs": [
        {
          "internalType": "uint256",
          "name": "healthRatio",
          "type": "uint256"
        }
      ],
      "name": "rebalance",
      "outputs": [],
      "stateMutability": "nonpayable",
      "type": "function"
    },
    {
      "inputs": [],
      "name": "withdraw",
      "outputs": [],
      "stateMutability": "nonpayable",
      "type": "function"
    }
  ],
  "bytecode": "0x6080604052600460009054906101000a900473ffffffffffffffffffffffffffffffffffffffff16600560006101000a81548173ffffffffffffffffffffffffffffffffffffffff021916908373ffffffffffffffffffffffffffffffffffffffff1602179055503480156200007457600080fd5b506040516200129a3803806200129a83398181016040528101906200009a9190620001cf565b826000806101000a81548173ffffffffffffffffffffffffffffffffffffffff021916908373ffffffffffffffffffffffffffffffffffffffff16021790555081600160006101000a81548173ffffffffffffffffffffffffffffffffffffffff021916908373ffffffffffffffffffffffffffffffffffffffff16021790555080600460006101000a81548173ffffffffffffffffffffffffffffffffffffffff021916908373ffffffffffffffffffffffffffffffffffffffff1602179055505050506200022b565b600080fd5b600073ffffffffffffffffffffffffffffffffffffffff82169050919050565b600062000197826200016a565b9050919050565b620001a9816200018a565b8114620001b557600080fd5b50565b600081519050620001c9816200019e565b92915050565b600080600060608486031215620001eb57620001ea62000165565b5b6000620001fb86828701620001b8565b93505060206200020e86828701620001b8565b92505060406200022186828701620001b8565b9150509250925092565b61105f806200023b6000396000f3fe6080604052600436106100a65760003560e01c80639b4c7386116100645780639b4c7386146101b3578063b2016bd4146101de578063b510f06314610209578063c710ccd614610234578063ee0c4be31461025f578063f499301814610288576100a6565b8062aeef8a146100ab5780631755ff21146100c757806322e8c87d146100f257806327e235e3146101225780633ccfd60b1461015f57806373c97f0514610176575b600080fd5b6100c560048036038101906100c09190610ad9565b6102b1565b005b3480156100d357600080fd5b506100dc61055e565b6040516100e99190610b6d565b60405180910390f35b3480156100fe57600080fd5b50610107610584565b60405161011996959493929190610b97565b60405180910390f35b34801561012e57600080fd5b5061014960048036038101906101449190610c24565b610594565b6040516101569190610c51565b60405180910390f35b34801561016b57600080fd5b506101746105ac565b005b34801561018257600080fd5b5061019d60048036038101906101989190610c24565b6108d6565b6040516101aa9190610c51565b60405180910390f35b3480156101bf57600080fd5b506101c86108ee565b6040516101d59190610b6d565b60405180910390f35b3480156101ea57600080fd5b506101f3610914565b6040516102009190610b6d565b60405180910390f35b34801561021557600080fd5b5061021e610938565b60405161022b9190610b6d565b60405180910390f35b34801561024057600080fd5b5061024961095e565b6040516102569190610b6d565b60405180910390f35b34801561026b57600080fd5b5061028660048036038101906102819190610c6c565b610984565b005b34801561029457600080fd5b506102af60048036038101906102aa9190610c6c565b610a9b565b005b607d816064856102c19190610cc8565b6102cb9190610d51565b1161030b576040517f08c379a000000000000000000000000000000000000000000000000000000000815260040161030290610e05565b60405180910390fd5b607d821161034e576040517f08c379a000000000000000000000000000000000000000000000000000000000815260040161034590610e97565b60405180910390fd5b7f75beaa91d612bcfbc5ad7549a380c1643d4ae08c7757159f96c950cf5528d19e82848360405161038193929190610eb7565b60405180910390a160008054906101000a900473ffffffffffffffffffffffffffffffffffffffff1673ffffffffffffffffffffffffffffffffffffffff166323b872dd3330866040518463ffffffff1660e01b81526004016103e693929190610eee565b6020604051808303816000875af1158015610405573d6000803e3d6000fd5b505050506040513d601f19601f820116820180604052508101906104299190610f5d565b5060008054906101000a900473ffffffffffffffffffffffffffffffffffffffff1673ffffffffffffffffffffffffffffffffffffffff1663095ea7b3600460009054906101000a900473ffffffffffffffffffffffffffffffffffffffff167fffffffffffffffffffffffffffffffffffffffffffffffffffffffffffffffff6040518363ffffffff1660e01b81526004016104c7929190610f8a565b6020604051808303816000875af11580156104e6573d6000803e3d6000fd5b505050506040513d601f19601f8201168201806040525081019061050a9190610f5d565b507f4d6ce1e535dbade1c23defba91e23b8f791ce5edc0cc320257a2b364e4e384266064828461053a9190610cc8565b6105449190610d51565b6040516105519190610c51565b60405180910390a1505050565b600460009054906101000a900473ffffffffffffffffffffffffffffffffffffffff1681565b6000806000806000809192939495565b60066020528060005260406000206000915090505481565b600160009054906101000a900473ffffffffffffffffffffffffffffffffffffffff1673ffffffffffffffffffffffffffffffffffffffff166323b872dd3330600160009054906101000a900473ffffffffffffffffffffffffffffffffffffffff1673ffffffffffffffffffffffffffffffffffffffff166370a08231336040518263ffffffff1660e01b81526004016106479190610b6d565b602060405180830381865afa158015610664573d6000803e3d6000fd5b505050506040513d601f19601f820116820180604052508101906106889190610fc8565b6040518463ffffffff1660e01b81526004016106a693929190610eee565b6020604051808303816000875af11580156106c5573d6000803e3d6000fd5b505050506040513d601f19601f820116820180604052508101906106e99190610f5d565b5060008060009054906101000a900473ffffffffffffffffffffffffffffffffffffffff1673ffffffffffffffffffffffffffffffffffffffff166370a08231306040518263ffffffff1660e01b81526004016107469190610b6d565b602060405180830381865afa158015610763573d6000803e3d6000fd5b505050506040513d601f19601f820116820180604052508101906107879190610fc8565b90507f4e70a604b23a8edee2b1d0a656e9b9c00b73ad8bb1afc2c59381ee9f69197de7816040516107b89190610c51565b60405180910390a160008054906101000a900473ffffffffffffffffffffffffffffffffffffffff1673ffffffffffffffffffffffffffffffffffffffff166323b872dd3033624c4b408561080d9190610ff5565b6040518463ffffffff1660e01b815260040161082b93929190610eee565b6020604051808303816000875af115801561084a573d6000803e3d6000fd5b505050506040513d601f19601f8201168201806040525081019061086e9190610f5d565b50624c4b408161087e9190610ff5565b600660003373ffffffffffffffffffffffffffffffffffffffff1673ffffffffffffffffffffffffffffffffffffffff16815260200190815260200160002060008282546108cc9190610ff5565b9250508190555050565b60076020528060005260406000206000915090505481565b600360009054906101000a900473ffffffffffffffffffffffffffffffffffffffff1681565b60008054906101000a900473ffffffffffffffffffffffffffffffffffffffff1681565b600260009054906101000a900473ffffffffffffffffffffffffffffffffffffffff1681565b600160009054906101000a900473ffffffffffffffffffffffffffffffffffffffff1681565b6000600760003373ffffffffffffffffffffffffffffffffffffffff1673ffffffffffffffffffffffffffffffffffffffff1681526020019081526020016000205490506000600660003373ffffffffffffffffffffffffffffffffffffffff1673ffffffffffffffffffffffffffffffffffffffff16815260200190815260200160002054905081831115610a35576000818385610a239190610ff5565b610a2d9190610cc8565b905050610a52565b6000818484610a449190610ff5565b610a4e9190610cc8565b9050505b82600760003373ffffffffffffffffffffffffffffffffffffffff1673ffffffffffffffffffffffffffffffffffffffff16815260200190815260200160002081905550505050565b50565b600080fd5b6000819050919050565b610ab681610aa3565b8114610ac157600080fd5b50565b600081359050610ad381610aad565b92915050565b600080600060608486031215610af257610af1610a9e565b5b6000610b0086828701610ac4565b9350506020610b1186828701610ac4565b9250506040610b2286828701610ac4565b9150509250925092565b600073ffffffffffffffffffffffffffffffffffffffff82169050919050565b6000610b5782610b2c565b9050919050565b610b6781610b4c565b82525050565b6000602082019050610b826000830184610b5e565b92915050565b610b9181610aa3565b82525050565b600060c082019050610bac6000830189610b88565b610bb96020830188610b88565b610bc66040830187610b88565b610bd36060830186610b88565b610be06080830185610b88565b610bed60a0830184610b88565b979650505050505050565b610c0181610b4c565b8114610c0c57600080fd5b50565b600081359050610c1e81610bf8565b92915050565b600060208284031215610c3a57610c39610a9e565b5b6000610c4884828501610c0f565b91505092915050565b6000602082019050610c666000830184610b88565b92915050565b600060208284031215610c8257610c81610a9e565b5b6000610c9084828501610ac4565b91505092915050565b7f4e487b7100000000000000000000000000000000000000000000000000000000600052601160045260246000fd5b6000610cd382610aa3565b9150610cde83610aa3565b9250817fffffffffffffffffffffffffffffffffffffffffffffffffffffffffffffffff0483118215151615610d1757610d16610c99565b5b828202905092915050565b7f4e487b7100000000000000000000000000000000000000000000000000000000600052601260045260246000fd5b6000610d5c82610aa3565b9150610d6783610aa3565b925082610d7757610d76610d22565b5b828204905092915050565b600082825260208201905092915050565b7f4d6178696d756d206865616c746820726174696f2068617320746f206265206760008201527f726561746572207468616e203132352500000000000000000000000000000000602082015250565b6000610def603083610d82565b9150610dfa82610d93565b604082019050919050565b60006020820190508181036000830152610e1e81610de2565b9050919050565b7f4865616c746820726174696f2068617320746f2062652067726561746572207460008201527f68616e2031323525000000000000000000000000000000000000000000000000602082015250565b6000610e81602883610d82565b9150610e8c82610e25565b604082019050919050565b60006020820190508181036000830152610eb081610e74565b9050919050565b6000606082019050610ecc6000830186610b88565b610ed96020830185610b88565b610ee66040830184610b88565b949350505050565b6000606082019050610f036000830186610b5e565b610f106020830185610b5e565b610f1d6040830184610b88565b949350505050565b60008115159050919050565b610f3a81610f25565b8114610f4557600080fd5b50565b600081519050610f5781610f31565b92915050565b600060208284031215610f7357610f72610a9e565b5b6000610f8184828501610f48565b91505092915050565b6000604082019050610f9f6000830185610b5e565b610fac6020830184610b88565b9392505050565b600081519050610fc281610aad565b92915050565b600060208284031215610fde57610fdd610a9e565b5b6000610fec84828501610fb3565b91505092915050565b600061100082610aa3565b915061100b83610aa3565b92508282101561101e5761101d610c99565b5b82820390509291505056fea264697066735822122096e41907f95ecc5a6376d61922c48cb71fa8b8b5ac4abb5479593c470f75e94e64736f6c634300080a0033",
  "linkReferences": {},
  "deployedLinkReferences": {}
}